{
  "contractName": "Faucet",
  "abi": [
    {
      "inputs": [
        {
          "internalType": "address",
          "name": "",
          "type": "address"
        }
      ],
      "name": "accounts",
      "outputs": [
        {
          "internalType": "string",
          "name": "name",
          "type": "string"
        },
        {
          "internalType": "string",
          "name": "sex",
          "type": "string"
        },
        {
          "internalType": "string",
          "name": "dateOfBirth",
          "type": "string"
        },
        {
          "internalType": "string",
          "name": "phoneNumber",
          "type": "string"
        },
        {
          "internalType": "string",
          "name": "email",
          "type": "string"
        },
        {
          "internalType": "string",
          "name": "signature",
          "type": "string"
        },
        {
          "internalType": "string",
          "name": "publickey",
          "type": "string"
        }
      ],
      "stateMutability": "view",
      "type": "function",
      "constant": true
    },
    {
      "inputs": [
        {
          "internalType": "string",
          "name": "_name",
          "type": "string"
        },
        {
          "internalType": "string",
          "name": "_sex",
          "type": "string"
        },
        {
          "internalType": "string",
          "name": "_dateOfBirth",
          "type": "string"
        },
        {
          "internalType": "string",
          "name": "_phoneNumber",
          "type": "string"
        },
        {
          "internalType": "string",
          "name": "_email",
          "type": "string"
        },
        {
          "internalType": "string",
          "name": "_signature",
          "type": "string"
        },
        {
          "internalType": "string",
          "name": "_publickey",
          "type": "string"
        }
      ],
      "name": "setAccountInfo",
      "outputs": [],
      "stateMutability": "nonpayable",
      "type": "function"
    },
    {
      "inputs": [],
      "name": "getAccountInfo",
      "outputs": [
        {
          "internalType": "string",
          "name": "",
          "type": "string"
        },
        {
          "internalType": "string",
          "name": "",
          "type": "string"
        },
        {
          "internalType": "string",
          "name": "",
          "type": "string"
        },
        {
          "internalType": "string",
          "name": "",
          "type": "string"
        },
        {
          "internalType": "string",
          "name": "",
          "type": "string"
        },
        {
          "internalType": "string",
          "name": "",
          "type": "string"
        },
        {
          "internalType": "string",
          "name": "",
          "type": "string"
        }
      ],
      "stateMutability": "view",
      "type": "function",
      "constant": true
    }
  ],
  "bytecode": "0x608060405234801561001057600080fd5b50611312806100206000396000f3fe608060405234801561001057600080fd5b50600436106100415760003560e01c80631b9e16ad146100465780635e5c06e21461006a5780639f3cb960146100a0575b600080fd5b61004e6100bc565b6040516100619796959493929190610c1a565b60405180910390f35b610084600480360381019061007f9190610d2c565b610679565b6040516100979796959493929190610c1a565b60405180910390f35b6100ba60048036038101906100b59190610e8e565b610a73565b005b60608060608060608060606000803373ffffffffffffffffffffffffffffffffffffffff1673ffffffffffffffffffffffffffffffffffffffff1681526020019081526020016000206000016000803373ffffffffffffffffffffffffffffffffffffffff1673ffffffffffffffffffffffffffffffffffffffff1681526020019081526020016000206001016000803373ffffffffffffffffffffffffffffffffffffffff1673ffffffffffffffffffffffffffffffffffffffff1681526020019081526020016000206002016000803373ffffffffffffffffffffffffffffffffffffffff1673ffffffffffffffffffffffffffffffffffffffff1681526020019081526020016000206003016000803373ffffffffffffffffffffffffffffffffffffffff1673ffffffffffffffffffffffffffffffffffffffff1681526020019081526020016000206004016000803373ffffffffffffffffffffffffffffffffffffffff1673ffffffffffffffffffffffffffffffffffffffff1681526020019081526020016000206005016000803373ffffffffffffffffffffffffffffffffffffffff1673ffffffffffffffffffffffffffffffffffffffff16815260200190815260200160002060060186805461029a90611023565b80601f01602080910402602001604051908101604052809291908181526020018280546102c690611023565b80156103135780601f106102e857610100808354040283529160200191610313565b820191906000526020600020905b8154815290600101906020018083116102f657829003601f168201915b5050505050965085805461032690611023565b80601f016020809104026020016040519081016040528092919081815260200182805461035290611023565b801561039f5780601f106103745761010080835404028352916020019161039f565b820191906000526020600020905b81548152906001019060200180831161038257829003601f168201915b505050505095508480546103b290611023565b80601f01602080910402602001604051908101604052809291908181526020018280546103de90611023565b801561042b5780601f106104005761010080835404028352916020019161042b565b820191906000526020600020905b81548152906001019060200180831161040e57829003601f168201915b5050505050945083805461043e90611023565b80601f016020809104026020016040519081016040528092919081815260200182805461046a90611023565b80156104b75780601f1061048c576101008083540402835291602001916104b7565b820191906000526020600020905b81548152906001019060200180831161049a57829003601f168201915b505050505093508280546104ca90611023565b80601f01602080910402602001604051908101604052809291908181526020018280546104f690611023565b80156105435780601f1061051857610100808354040283529160200191610543565b820191906000526020600020905b81548152906001019060200180831161052657829003601f168201915b5050505050925081805461055690611023565b80601f016020809104026020016040519081016040528092919081815260200182805461058290611023565b80156105cf5780601f106105a4576101008083540402835291602001916105cf565b820191906000526020600020905b8154815290600101906020018083116105b257829003601f168201915b505050505091508080546105e290611023565b80601f016020809104026020016040519081016040528092919081815260200182805461060e90611023565b801561065b5780601f106106305761010080835404028352916020019161065b565b820191906000526020600020905b81548152906001019060200180831161063e57829003601f168201915b50505050509050965096509650965096509650965090919293949596565b600060205280600052604060002060009150905080600001805461069c90611023565b80601f01602080910402602001604051908101604052809291908181526020018280546106c890611023565b80156107155780601f106106ea57610100808354040283529160200191610715565b820191906000526020600020905b8154815290600101906020018083116106f857829003601f168201915b50505050509080600101805461072a90611023565b80601f016020809104026020016040519081016040528092919081815260200182805461075690611023565b80156107a35780601f10610778576101008083540402835291602001916107a3565b820191906000526020600020905b81548152906001019060200180831161078657829003601f168201915b5050505050908060020180546107b890611023565b80601f01602080910402602001604051908101604052809291908181526020018280546107e490611023565b80156108315780601f1061080657610100808354040283529160200191610831565b820191906000526020600020905b81548152906001019060200180831161081457829003601f168201915b50505050509080600301805461084690611023565b80601f016020809104026020016040519081016040528092919081815260200182805461087290611023565b80156108bf5780601f10610894576101008083540402835291602001916108bf565b820191906000526020600020905b8154815290600101906020018083116108a257829003601f168201915b5050505050908060040180546108d490611023565b80601f016020809104026020016040519081016040528092919081815260200182805461090090611023565b801561094d5780601f106109225761010080835404028352916020019161094d565b820191906000526020600020905b81548152906001019060200180831161093057829003601f168201915b50505050509080600501805461096290611023565b80601f016020809104026020016040519081016040528092919081815260200182805461098e90611023565b80156109db5780601f106109b0576101008083540402835291602001916109db565b820191906000526020600020905b8154815290600101906020018083116109be57829003601f168201915b5050505050908060060180546109f090611023565b80601f0160208091040260200160405190810160405280929190818152602001828054610a1c90611023565b8015610a695780601f10610a3e57610100808354040283529160200191610a69565b820191906000526020600020905b815481529060010190602001808311610a4c57829003601f168201915b5050505050905087565b6040518060e00160405280888152602001878152602001868152602001858152602001848152602001838152602001828152506000803373ffffffffffffffffffffffffffffffffffffffff1673ffffffffffffffffffffffffffffffffffffffff1681526020019081526020016000206000820151816000019081610af9919061120a565b506020820151816001019081610b0f919061120a565b506040820151816002019081610b25919061120a565b506060820151816003019081610b3b919061120a565b506080820151816004019081610b51919061120a565b5060a0820151816005019081610b67919061120a565b5060c0820151816006019081610b7d919061120a565b5090505050505050505050565b600081519050919050565b600082825260208201905092915050565b60005b83811015610bc4578082015181840152602081019050610ba9565b60008484015250505050565b6000601f19601f8301169050919050565b6000610bec82610b8a565b610bf68185610b95565b9350610c06818560208601610ba6565b610c0f81610bd0565b840191505092915050565b600060e0820190508181036000830152610c34818a610be1565b90508181036020830152610c488189610be1565b90508181036040830152610c5c8188610be1565b90508181036060830152610c708187610be1565b90508181036080830152610c848186610be1565b905081810360a0830152610c988185610be1565b905081810360c0830152610cac8184610be1565b905098975050505050505050565b6000604051905090565b600080fd5b600080fd5b600073ffffffffffffffffffffffffffffffffffffffff82169050919050565b6000610cf982610cce565b9050919050565b610d0981610cee565b8114610d1457600080fd5b50565b600081359050610d2681610d00565b92915050565b600060208284031215610d4257610d41610cc4565b5b6000610d5084828501610d17565b91505092915050565b600080fd5b600080fd5b7f4e487b7100000000000000000000000000000000000000000000000000000000600052604160045260246000fd5b610d9b82610bd0565b810181811067ffffffffffffffff82111715610dba57610db9610d63565b5b80604052505050565b6000610dcd610cba565b9050610dd98282610d92565b919050565b600067ffffffffffffffff821115610df957610df8610d63565b5b610e0282610bd0565b9050602081019050919050565b82818337600083830152505050565b6000610e31610e2c84610dde565b610dc3565b905082815260208101848484011115610e4d57610e4c610d5e565b5b610e58848285610e0f565b509392505050565b600082601f830112610e7557610e74610d59565b5b8135610e85848260208601610e1e565b91505092915050565b600080600080600080600060e0888a031215610ead57610eac610cc4565b5b600088013567ffffffffffffffff811115610ecb57610eca610cc9565b5b610ed78a828b01610e60565b975050602088013567ffffffffffffffff811115610ef857610ef7610cc9565b5b610f048a828b01610e60565b965050604088013567ffffffffffffffff811115610f2557610f24610cc9565b5b610f318a828b01610e60565b955050606088013567ffffffffffffffff811115610f5257610f51610cc9565b5b610f5e8a828b01610e60565b945050608088013567ffffffffffffffff811115610f7f57610f7e610cc9565b5b610f8b8a828b01610e60565b93505060a088013567ffffffffffffffff811115610fac57610fab610cc9565b5b610fb88a828b01610e60565b92505060c088013567ffffffffffffffff811115610fd957610fd8610cc9565b5b610fe58a828b01610e60565b91505092959891949750929550565b7f4e487b7100000000000000000000000000000000000000000000000000000000600052602260045260246000fd5b6000600282049050600182168061103b57607f821691505b60208210810361104e5761104d610ff4565b5b50919050565b60008190508160005260206000209050919050565b60006020601f8301049050919050565b600082821b905092915050565b6000600883026110b67fffffffffffffffffffffffffffffffffffffffffffffffffffffffffffffffff82611079565b6110c08683611079565b95508019841693508086168417925050509392505050565b6000819050919050565b6000819050919050565b60006111076111026110fd846110d8565b6110e2565b6110d8565b9050919050565b6000819050919050565b611121836110ec565b61113561112d8261110e565b848454611086565b825550505050565b600090565b61114a61113d565b611155818484611118565b505050565b5b818110156111795761116e600082611142565b60018101905061115b565b5050565b601f8211156111be5761118f81611054565b61119884611069565b810160208510156111a7578190505b6111bb6111b385611069565b83018261115a565b50505b505050565b600082821c905092915050565b60006111e1600019846008026111c3565b1980831691505092915050565b60006111fa83836111d0565b9150826002028217905092915050565b61121382610b8a565b67ffffffffffffffff81111561122c5761122b610d63565b5b6112368254611023565b61124182828561117d565b600060209050601f8311600181146112745760008415611262578287015190505b61126c85826111ee565b8655506112d4565b601f19841661128286611054565b60005b828110156112aa57848901518255600182019150602085019450602081019050611285565b868310156112c757848901516112c3601f8916826111d0565b8355505b6001600288020188555050505b50505050505056fea2646970667358221220d75adcce04f9d275bf02cc9712b04d1420790a6460f7beba39abae9f6fe3f41064736f6c63430008130033",
  "immutableReferences": {},
  "source": "// SPDX-License-Identifier: MIT\r\npragma solidity 0.8.19;\r\n\r\ncontract Faucet {\r\n    struct AccountInfo {\r\n        string name;\r\n        string sex;\r\n        string dateOfBirth;\r\n        string phoneNumber;\r\n        string email;\r\n        string signature;\r\n        string publickey;\r\n    }\r\n\r\n    mapping(address => AccountInfo) public accounts;\r\n\r\n    function setAccountInfo(\r\n        string memory _name,\r\n        string memory _sex,\r\n        string memory _dateOfBirth,\r\n        string memory _phoneNumber,\r\n        string memory _email,\r\n        string memory _signature,\r\n        string memory _publickey\r\n    ) public {\r\n        accounts[msg.sender] = AccountInfo(\r\n            _name,\r\n            _sex,\r\n            _dateOfBirth,\r\n            _phoneNumber,\r\n            _email,\r\n            _signature,\r\n            _publickey\r\n        );\r\n    }\r\n\r\n    function getAccountInfo()\r\n        public\r\n        view\r\n        returns (\r\n            string memory,\r\n            string memory,\r\n            string memory,\r\n            string memory,\r\n            string memory,\r\n            string memory,\r\n            string memory\r\n        )\r\n    {\r\n        return (\r\n            accounts[msg.sender].name,\r\n            accounts[msg.sender].sex,\r\n            accounts[msg.sender].dateOfBirth,\r\n            accounts[msg.sender].phoneNumber,\r\n            accounts[msg.sender].email,\r\n            accounts[msg.sender].signature,\r\n            accounts[msg.sender].publickey\r\n        );\r\n    }\r\n}\r\n",
  "sourcePath": "D:\\Documents\\GraduateProject\\Login\\CK\\contracts\\Faucet.sol",
  "compiler": {
    "name": "solc",
    "version": "0.8.19+commit.7dd6d404.Emscripten.clang"
  },
  "schemaVersion": "3.4.13",
  "updatedAt": "2023-06-09T04:06:41.007Z",
  "networkType": "ethereum",
  "devdoc": {
    "kind": "dev",
    "methods": {},
    "version": 1
  },
  "userdoc": {
    "kind": "user",
    "methods": {},
    "version": 1
  }
}