{
  "contractName": "Faucet",
  "abi": [
    {
      "inputs": [
        {
          "internalType": "address",
          "name": "",
          "type": "address"
        }
      ],
      "name": "accounts",
      "outputs": [
        {
          "internalType": "string",
          "name": "name",
          "type": "string"
        },
        {
          "internalType": "string",
          "name": "sex",
          "type": "string"
        },
        {
          "internalType": "string",
          "name": "dateOfBirth",
          "type": "string"
        },
        {
          "internalType": "string",
          "name": "phoneNumber",
          "type": "string"
        },
        {
          "internalType": "string",
          "name": "email",
          "type": "string"
        },
        {
          "internalType": "string",
          "name": "signature",
          "type": "string"
        }
      ],
      "stateMutability": "view",
      "type": "function",
      "constant": true
    },
    {
      "inputs": [
        {
          "internalType": "string",
          "name": "_name",
          "type": "string"
        },
        {
          "internalType": "string",
          "name": "_sex",
          "type": "string"
        },
        {
          "internalType": "string",
          "name": "_dateOfBirth",
          "type": "string"
        },
        {
          "internalType": "string",
          "name": "_phoneNumber",
          "type": "string"
        },
        {
          "internalType": "string",
          "name": "_email",
          "type": "string"
        },
        {
          "internalType": "string",
          "name": "_signature",
          "type": "string"
        }
      ],
      "name": "setAccountInfo",
      "outputs": [],
      "stateMutability": "nonpayable",
      "type": "function"
    },
    {
      "inputs": [],
      "name": "getAccountInfo",
      "outputs": [
        {
          "internalType": "string",
          "name": "",
          "type": "string"
        },
        {
          "internalType": "string",
          "name": "",
          "type": "string"
        },
        {
          "internalType": "string",
          "name": "",
          "type": "string"
        },
        {
          "internalType": "string",
          "name": "",
          "type": "string"
        },
        {
          "internalType": "string",
          "name": "",
          "type": "string"
        },
        {
          "internalType": "string",
          "name": "",
          "type": "string"
        }
      ],
      "stateMutability": "view",
      "type": "function",
      "constant": true
    }
  ],
  "bytecode": "0x608060405234801561001057600080fd5b5061114d806100206000396000f3fe608060405234801561001057600080fd5b50600436106100415760003560e01c80631b9e16ad146100465780635e5c06e2146100695780638de7f9ae1461009e575b600080fd5b61004e6100ba565b60405161006096959493929190610a9b565b60405180910390f35b610083600480360381019061007e9190610b98565b6105a5565b60405161009596959493929190610a9b565b60405180910390f35b6100b860048036038101906100b39190610cfa565b610911565b005b6060806060806060806000803373ffffffffffffffffffffffffffffffffffffffff1673ffffffffffffffffffffffffffffffffffffffff1681526020019081526020016000206000016000803373ffffffffffffffffffffffffffffffffffffffff1673ffffffffffffffffffffffffffffffffffffffff1681526020019081526020016000206001016000803373ffffffffffffffffffffffffffffffffffffffff1673ffffffffffffffffffffffffffffffffffffffff1681526020019081526020016000206002016000803373ffffffffffffffffffffffffffffffffffffffff1673ffffffffffffffffffffffffffffffffffffffff1681526020019081526020016000206003016000803373ffffffffffffffffffffffffffffffffffffffff1673ffffffffffffffffffffffffffffffffffffffff1681526020019081526020016000206004016000803373ffffffffffffffffffffffffffffffffffffffff1673ffffffffffffffffffffffffffffffffffffffff16815260200190815260200160002060050185805461025590610e5e565b80601f016020809104026020016040519081016040528092919081815260200182805461028190610e5e565b80156102ce5780601f106102a3576101008083540402835291602001916102ce565b820191906000526020600020905b8154815290600101906020018083116102b157829003601f168201915b505050505095508480546102e190610e5e565b80601f016020809104026020016040519081016040528092919081815260200182805461030d90610e5e565b801561035a5780601f1061032f5761010080835404028352916020019161035a565b820191906000526020600020905b81548152906001019060200180831161033d57829003601f168201915b5050505050945083805461036d90610e5e565b80601f016020809104026020016040519081016040528092919081815260200182805461039990610e5e565b80156103e65780601f106103bb576101008083540402835291602001916103e6565b820191906000526020600020905b8154815290600101906020018083116103c957829003601f168201915b505050505093508280546103f990610e5e565b80601f016020809104026020016040519081016040528092919081815260200182805461042590610e5e565b80156104725780601f1061044757610100808354040283529160200191610472565b820191906000526020600020905b81548152906001019060200180831161045557829003601f168201915b5050505050925081805461048590610e5e565b80601f01602080910402602001604051908101604052809291908181526020018280546104b190610e5e565b80156104fe5780601f106104d3576101008083540402835291602001916104fe565b820191906000526020600020905b8154815290600101906020018083116104e157829003601f168201915b5050505050915080805461051190610e5e565b80601f016020809104026020016040519081016040528092919081815260200182805461053d90610e5e565b801561058a5780601f1061055f5761010080835404028352916020019161058a565b820191906000526020600020905b81548152906001019060200180831161056d57829003601f168201915b50505050509050955095509550955095509550909192939495565b60006020528060005260406000206000915090508060000180546105c890610e5e565b80601f01602080910402602001604051908101604052809291908181526020018280546105f490610e5e565b80156106415780601f1061061657610100808354040283529160200191610641565b820191906000526020600020905b81548152906001019060200180831161062457829003601f168201915b50505050509080600101805461065690610e5e565b80601f016020809104026020016040519081016040528092919081815260200182805461068290610e5e565b80156106cf5780601f106106a4576101008083540402835291602001916106cf565b820191906000526020600020905b8154815290600101906020018083116106b257829003601f168201915b5050505050908060020180546106e490610e5e565b80601f016020809104026020016040519081016040528092919081815260200182805461071090610e5e565b801561075d5780601f106107325761010080835404028352916020019161075d565b820191906000526020600020905b81548152906001019060200180831161074057829003601f168201915b50505050509080600301805461077290610e5e565b80601f016020809104026020016040519081016040528092919081815260200182805461079e90610e5e565b80156107eb5780601f106107c0576101008083540402835291602001916107eb565b820191906000526020600020905b8154815290600101906020018083116107ce57829003601f168201915b50505050509080600401805461080090610e5e565b80601f016020809104026020016040519081016040528092919081815260200182805461082c90610e5e565b80156108795780601f1061084e57610100808354040283529160200191610879565b820191906000526020600020905b81548152906001019060200180831161085c57829003601f168201915b50505050509080600501805461088e90610e5e565b80601f01602080910402602001604051908101604052809291908181526020018280546108ba90610e5e565b80156109075780601f106108dc57610100808354040283529160200191610907565b820191906000526020600020905b8154815290600101906020018083116108ea57829003601f168201915b5050505050905086565b6040518060c00160405280878152602001868152602001858152602001848152602001838152602001828152506000803373ffffffffffffffffffffffffffffffffffffffff1673ffffffffffffffffffffffffffffffffffffffff16815260200190815260200160002060008201518160000190816109919190611045565b5060208201518160010190816109a79190611045565b5060408201518160020190816109bd9190611045565b5060608201518160030190816109d39190611045565b5060808201518160040190816109e99190611045565b5060a08201518160050190816109ff9190611045565b50905050505050505050565b600081519050919050565b600082825260208201905092915050565b60005b83811015610a45578082015181840152602081019050610a2a565b60008484015250505050565b6000601f19601f8301169050919050565b6000610a6d82610a0b565b610a778185610a16565b9350610a87818560208601610a27565b610a9081610a51565b840191505092915050565b600060c0820190508181036000830152610ab58189610a62565b90508181036020830152610ac98188610a62565b90508181036040830152610add8187610a62565b90508181036060830152610af18186610a62565b90508181036080830152610b058185610a62565b905081810360a0830152610b198184610a62565b9050979650505050505050565b6000604051905090565b600080fd5b600080fd5b600073ffffffffffffffffffffffffffffffffffffffff82169050919050565b6000610b6582610b3a565b9050919050565b610b7581610b5a565b8114610b8057600080fd5b50565b600081359050610b9281610b6c565b92915050565b600060208284031215610bae57610bad610b30565b5b6000610bbc84828501610b83565b91505092915050565b600080fd5b600080fd5b7f4e487b7100000000000000000000000000000000000000000000000000000000600052604160045260246000fd5b610c0782610a51565b810181811067ffffffffffffffff82111715610c2657610c25610bcf565b5b80604052505050565b6000610c39610b26565b9050610c458282610bfe565b919050565b600067ffffffffffffffff821115610c6557610c64610bcf565b5b610c6e82610a51565b9050602081019050919050565b82818337600083830152505050565b6000610c9d610c9884610c4a565b610c2f565b905082815260208101848484011115610cb957610cb8610bca565b5b610cc4848285610c7b565b509392505050565b600082601f830112610ce157610ce0610bc5565b5b8135610cf1848260208601610c8a565b91505092915050565b60008060008060008060c08789031215610d1757610d16610b30565b5b600087013567ffffffffffffffff811115610d3557610d34610b35565b5b610d4189828a01610ccc565b965050602087013567ffffffffffffffff811115610d6257610d61610b35565b5b610d6e89828a01610ccc565b955050604087013567ffffffffffffffff811115610d8f57610d8e610b35565b5b610d9b89828a01610ccc565b945050606087013567ffffffffffffffff811115610dbc57610dbb610b35565b5b610dc889828a01610ccc565b935050608087013567ffffffffffffffff811115610de957610de8610b35565b5b610df589828a01610ccc565b92505060a087013567ffffffffffffffff811115610e1657610e15610b35565b5b610e2289828a01610ccc565b9150509295509295509295565b7f4e487b7100000000000000000000000000000000000000000000000000000000600052602260045260246000fd5b60006002820490506001821680610e7657607f821691505b602082108103610e8957610e88610e2f565b5b50919050565b60008190508160005260206000209050919050565b60006020601f8301049050919050565b600082821b905092915050565b600060088302610ef17fffffffffffffffffffffffffffffffffffffffffffffffffffffffffffffffff82610eb4565b610efb8683610eb4565b95508019841693508086168417925050509392505050565b6000819050919050565b6000819050919050565b6000610f42610f3d610f3884610f13565b610f1d565b610f13565b9050919050565b6000819050919050565b610f5c83610f27565b610f70610f6882610f49565b848454610ec1565b825550505050565b600090565b610f85610f78565b610f90818484610f53565b505050565b5b81811015610fb457610fa9600082610f7d565b600181019050610f96565b5050565b601f821115610ff957610fca81610e8f565b610fd384610ea4565b81016020851015610fe2578190505b610ff6610fee85610ea4565b830182610f95565b50505b505050565b600082821c905092915050565b600061101c60001984600802610ffe565b1980831691505092915050565b6000611035838361100b565b9150826002028217905092915050565b61104e82610a0b565b67ffffffffffffffff81111561106757611066610bcf565b5b6110718254610e5e565b61107c828285610fb8565b600060209050601f8311600181146110af576000841561109d578287015190505b6110a78582611029565b86555061110f565b601f1984166110bd86610e8f565b60005b828110156110e5578489015182556001820191506020850194506020810190506110c0565b8683101561110257848901516110fe601f89168261100b565b8355505b6001600288020188555050505b50505050505056fea264697066735822122035148cfee562eb782e68190635cbe3941c89a6fc8eb42ebdda2b1f4f5a1283bc64736f6c63430008130033",
  "immutableReferences": {},
  "source": "// SPDX-License-Identifier: MIT\r\npragma solidity 0.8.19;\r\n\r\ncontract Faucet {\r\n    struct AccountInfo {\r\n        string name;\r\n        string sex;\r\n        string dateOfBirth;\r\n        string phoneNumber;\r\n        string email;\r\n        string signature;\r\n    }\r\n\r\n    mapping(address => AccountInfo) public accounts;\r\n\r\n    function setAccountInfo(\r\n        string memory _name,\r\n        string memory _sex,\r\n        string memory _dateOfBirth,\r\n        string memory _phoneNumber,\r\n        string memory _email,\r\n        string memory _signature\r\n    ) public {\r\n        accounts[msg.sender] = AccountInfo(\r\n            _name,\r\n            _sex,\r\n            _dateOfBirth,\r\n            _phoneNumber,\r\n            _email,\r\n            _signature\r\n        );\r\n    }\r\n\r\n    function getAccountInfo()\r\n        public\r\n        view\r\n        returns (\r\n            string memory,\r\n            string memory,\r\n            string memory,\r\n            string memory,\r\n            string memory,\r\n            string memory\r\n        )\r\n    {\r\n        return (\r\n            accounts[msg.sender].name,\r\n            accounts[msg.sender].sex,\r\n            accounts[msg.sender].dateOfBirth,\r\n            accounts[msg.sender].phoneNumber,\r\n            accounts[msg.sender].email,\r\n            accounts[msg.sender].signature\r\n        );\r\n    }\r\n}\r\n",
  "sourcePath": "D:\\Documents\\GraduateProject\\Login\\CK\\contracts\\Faucet.sol",
  "compiler": {
    "name": "solc",
    "version": "0.8.19+commit.7dd6d404.Emscripten.clang"
  },
  "schemaVersion": "3.4.13",
  "updatedAt": "2023-06-17T11:19:16.100Z",
  "networkType": "ethereum",
  "devdoc": {
    "kind": "dev",
    "methods": {},
    "version": 1
  },
  "userdoc": {
    "kind": "user",
    "methods": {},
    "version": 1
  }
}